{
  "contractName": "Contribution",
  "abi": [
    {
      "anonymous": false,
      "inputs": [
        {
          "indexed": false,
          "internalType": "uint256",
          "name": "_rNo",
          "type": "uint256"
        },
        {
          "indexed": false,
          "internalType": "address",
          "name": "_address",
          "type": "address"
        }
      ],
      "name": "contributeEvent",
      "type": "event"
    },
    {
      "inputs": [
        {
          "internalType": "uint256",
          "name": "",
          "type": "uint256"
        }
      ],
      "name": "clientAddresses",
      "outputs": [
        {
          "internalType": "address",
          "name": "",
          "type": "address"
        }
      ],
      "stateMutability": "view",
      "type": "function",
      "constant": true
    },
    {
      "inputs": [
        {
          "internalType": "address",
          "name": "",
          "type": "address"
        }
      ],
      "name": "dataContributionsCount",
      "outputs": [
        {
          "internalType": "uint256",
          "name": "",
          "type": "uint256"
        }
      ],
      "stateMutability": "view",
      "type": "function",
      "constant": true
    },
    {
      "inputs": [
        {
          "internalType": "uint256",
          "name": "",
          "type": "uint256"
        }
      ],
      "name": "rNos",
      "outputs": [
        {
          "internalType": "uint256",
          "name": "",
          "type": "uint256"
        }
      ],
      "stateMutability": "view",
      "type": "function",
      "constant": true
    },
    {
      "inputs": [
        {
          "internalType": "uint256",
          "name": "_rNo",
          "type": "uint256"
        },
        {
          "internalType": "bool",
          "name": "_finished",
          "type": "bool"
        },
        {
          "internalType": "uint256",
          "name": "_dataSize",
          "type": "uint256"
        }
      ],
      "name": "calculateContribution",
      "outputs": [],
      "stateMutability": "nonpayable",
      "type": "function"
    },
    {
      "inputs": [],
      "name": "getClientAddresses",
      "outputs": [
        {
          "internalType": "address[]",
          "name": "",
          "type": "address[]"
        }
      ],
      "stateMutability": "view",
      "type": "function",
      "constant": true
    },
    {
      "inputs": [],
      "name": "get_rNos",
      "outputs": [
        {
          "internalType": "uint256[]",
          "name": "",
          "type": "uint256[]"
        }
      ],
      "stateMutability": "view",
      "type": "function",
      "constant": true
    },
    {
      "inputs": [
        {
          "internalType": "address",
          "name": "_clientAddress",
          "type": "address"
        },
        {
          "internalType": "uint256",
          "name": "_rNo",
          "type": "uint256"
        }
      ],
      "name": "getContribution",
      "outputs": [
        {
          "internalType": "bool",
          "name": "finished_",
          "type": "bool"
        },
        {
          "internalType": "uint256",
          "name": "dataSize_",
          "type": "uint256"
        },
        {
          "internalType": "uint256",
          "name": "balance_",
          "type": "uint256"
        }
      ],
      "stateMutability": "view",
      "type": "function",
      "constant": true
    },
    {
      "inputs": [
        {
          "internalType": "address",
          "name": "_clientAddress",
          "type": "address"
        }
      ],
      "name": "getBalance",
      "outputs": [
        {
          "internalType": "uint256",
          "name": "balance_",
          "type": "uint256"
        }
      ],
      "stateMutability": "view",
      "type": "function",
      "constant": true
    }
  ],
  "bytecode": "0x608060405234801561001057600080fd5b50610d60806100206000396000f3fe608060405234801561001057600080fd5b50600436106100875760003560e01c8063c80e71a51161005b578063c80e71a51461013a578063f1987e1114610158578063f8b2cb4f14610188578063fa2aa5ba146101b857610087565b8062d488981461008c578063327520bb146100a8578063563c495e146100d8578063653c95b814610108575b600080fd5b6100a660048036038101906100a1919061081c565b6101d6565b005b6100c260048036038101906100bd91906108cd565b6104fa565b6040516100cf9190610909565b60405180910390f35b6100f260048036038101906100ed9190610924565b610512565b6040516100ff9190610909565b60405180910390f35b610122600480360381019061011d9190610951565b610536565b604051610131939291906109a0565b60405180910390f35b61014261063b565b60405161014f9190610a95565b60405180910390f35b610172600480360381019061016d9190610924565b6106c9565b60405161017f9190610ac6565b60405180910390f35b6101a2600480360381019061019d91906108cd565b610708565b6040516101af9190610909565b60405180910390f35b6101c0610751565b6040516101cd9190610b9f565b60405180910390f35b600115156000803373ffffffffffffffffffffffffffffffffffffffff1673ffffffffffffffffffffffffffffffffffffffff168152602001908152602001600020600085815260200190815260200160002060000160009054906101000a900460ff16151514806102ab5750600015156000803373ffffffffffffffffffffffffffffffffffffffff1673ffffffffffffffffffffffffffffffffffffffff168152602001908152602001600020600085815260200190815260200160002060000160009054906101000a900460ff161515145b6102ea576040517f08c379a00000000000000000000000000000000000000000000000000000000081526004016102e190610c1e565b60405180910390fd5b60011515821515036104bc576101f48111156104bb5760405180604001604052808315158152602001828152506000803373ffffffffffffffffffffffffffffffffffffffff1673ffffffffffffffffffffffffffffffffffffffff168152602001908152602001600020600085815260200190815260200160002060008201518160000160006101000a81548160ff021916908315150217905550602082015181600101559050506101f4816103a19190610c9c565b600260003373ffffffffffffffffffffffffffffffffffffffff1673ffffffffffffffffffffffffffffffffffffffff168152602001908152602001600020546103eb9190610ccd565b600260003373ffffffffffffffffffffffffffffffffffffffff1673ffffffffffffffffffffffffffffffffffffffff168152602001908152602001600020819055506003339080600181540180825580915050600190039060005260206000200160009091909190916101000a81548173ffffffffffffffffffffffffffffffffffffffff021916908373ffffffffffffffffffffffffffffffffffffffff16021790555060048390806001815401808255809150506001900390600052602060002001600090919091909150555b5b7f2b60416e3c272341f6efa119959567daebfc9a7b40c7bf78de187900274e021583336040516104ed929190610d01565b60405180910390a1505050565b60016020528060005260406000206000915090505481565b6004818154811061052257600080fd5b906000526020600020016000915090505481565b60008060008060008673ffffffffffffffffffffffffffffffffffffffff1673ffffffffffffffffffffffffffffffffffffffff168152602001908152602001600020600085815260200190815260200160002060000160009054906101000a900460ff1692506000808673ffffffffffffffffffffffffffffffffffffffff1673ffffffffffffffffffffffffffffffffffffffff1681526020019081526020016000206000858152602001908152602001600020600101549150600260008673ffffffffffffffffffffffffffffffffffffffff1673ffffffffffffffffffffffffffffffffffffffff1681526020019081526020016000205490509250925092565b606060038054806020026020016040519081016040528092919081815260200182805480156106bf57602002820191906000526020600020905b8160009054906101000a900473ffffffffffffffffffffffffffffffffffffffff1673ffffffffffffffffffffffffffffffffffffffff1681526020019060010190808311610675575b5050505050905090565b600381815481106106d957600080fd5b906000526020600020016000915054906101000a900473ffffffffffffffffffffffffffffffffffffffff1681565b6000600260008373ffffffffffffffffffffffffffffffffffffffff1673ffffffffffffffffffffffffffffffffffffffff168152602001908152602001600020549050919050565b6060600480548060200260200160405190810160405280929190818152602001828054801561079f57602002820191906000526020600020905b81548152602001906001019080831161078b575b5050505050905090565b600080fd5b6000819050919050565b6107c1816107ae565b81146107cc57600080fd5b50565b6000813590506107de816107b8565b92915050565b60008115159050919050565b6107f9816107e4565b811461080457600080fd5b50565b600081359050610816816107f0565b92915050565b600080600060608486031215610835576108346107a9565b5b6000610843868287016107cf565b935050602061085486828701610807565b9250506040610865868287016107cf565b9150509250925092565b600073ffffffffffffffffffffffffffffffffffffffff82169050919050565b600061089a8261086f565b9050919050565b6108aa8161088f565b81146108b557600080fd5b50565b6000813590506108c7816108a1565b92915050565b6000602082840312156108e3576108e26107a9565b5b60006108f1848285016108b8565b91505092915050565b610903816107ae565b82525050565b600060208201905061091e60008301846108fa565b92915050565b60006020828403121561093a576109396107a9565b5b6000610948848285016107cf565b91505092915050565b60008060408385031215610968576109676107a9565b5b6000610976858286016108b8565b9250506020610987858286016107cf565b9150509250929050565b61099a816107e4565b82525050565b60006060820190506109b56000830186610991565b6109c260208301856108fa565b6109cf60408301846108fa565b949350505050565b600081519050919050565b600082825260208201905092915050565b6000819050602082019050919050565b610a0c8161088f565b82525050565b6000610a1e8383610a03565b60208301905092915050565b6000602082019050919050565b6000610a42826109d7565b610a4c81856109e2565b9350610a57836109f3565b8060005b83811015610a88578151610a6f8882610a12565b9750610a7a83610a2a565b925050600181019050610a5b565b5085935050505092915050565b60006020820190508181036000830152610aaf8184610a37565b905092915050565b610ac08161088f565b82525050565b6000602082019050610adb6000830184610ab7565b92915050565b600081519050919050565b600082825260208201905092915050565b6000819050602082019050919050565b610b16816107ae565b82525050565b6000610b288383610b0d565b60208301905092915050565b6000602082019050919050565b6000610b4c82610ae1565b610b568185610aec565b9350610b6183610afd565b8060005b83811015610b92578151610b798882610b1c565b9750610b8483610b34565b925050600181019050610b65565b5085935050505092915050565b60006020820190508181036000830152610bb98184610b41565b905092915050565b600082825260208201905092915050565b7f4564676520616c726561647920636f6e74726962757465642e00000000000000600082015250565b6000610c08601983610bc1565b9150610c1382610bd2565b602082019050919050565b60006020820190508181036000830152610c3781610bfb565b9050919050565b7f4e487b7100000000000000000000000000000000000000000000000000000000600052601260045260246000fd5b7f4e487b7100000000000000000000000000000000000000000000000000000000600052601160045260246000fd5b6000610ca7826107ae565b9150610cb2836107ae565b925082610cc257610cc1610c3e565b5b828204905092915050565b6000610cd8826107ae565b9150610ce3836107ae565b9250828201905080821115610cfb57610cfa610c6d565b5b92915050565b6000604082019050610d1660008301856108fa565b610d236020830184610ab7565b939250505056fea264697066735822122039d5a4bf9a62a66426fbc1014dc3807fbfa1175bad5b1383a1848157b0d5d98d64736f6c63430008110033",
  "immutableReferences": {},
  "source": "pragma solidity >=0.5.0 <0.9.0;\n\ncontract Contribution{\n    \n    struct Work {\n        bool finished;\n        uint dataSize;\n    }\n\n    mapping(address => mapping(uint => Work)) dataContributions;\n    mapping(address => uint) public dataContributionsCount;\n    mapping(address => uint) balances;\n    address[] public clientAddresses;\n    uint[] public rNos;\n    event contributeEvent(uint _rNo, address _address);\n\n    function calculateContribution(uint _rNo, bool _finished, uint _dataSize)  public \n    {\n        require(\n            (dataContributions[msg.sender][_rNo].finished == true || dataContributions[msg.sender][_rNo].finished == false)\n            ,\n            \"Edge already contributed.\"\n        );\n\n        if (_finished == true) {\n            if(_dataSize > 500){\n                dataContributions[msg.sender][_rNo] = Work(_finished, _dataSize);\n                balances[msg.sender] = balances[msg.sender] + (_dataSize/500);\n                clientAddresses.push(msg.sender);\n                rNos.push(_rNo);\n                \n            }                \n        }\n\n       emit contributeEvent(_rNo, msg.sender);\n    }\n\n    function getClientAddresses() view public returns (address[] memory){\n        return clientAddresses;\n    }\n\n    function get_rNos() view public returns (uint[] memory){\n        return rNos;\n    }\n\n    function getContribution(address _clientAddress, uint _rNo) view public returns (bool finished_, uint dataSize_, uint balance_){\n        finished_ = dataContributions[_clientAddress][_rNo].finished;\n        dataSize_ = dataContributions[_clientAddress][_rNo].dataSize;\n        balance_ = balances[_clientAddress];\n\n        return (finished_, dataSize_, balance_);\n    }\n\n     function getBalance(address _clientAddress) public view returns(uint balance_){\n       return balances[_clientAddress];\n    }  \n}\n",
  "sourcePath": "/mnt/c/Users/KietVu/Testplace/FlwrBC/blockchain/contracts/Contribution.sol",
  "compiler": {
    "name": "solc",
    "version": "0.8.17+commit.8df45f5f.Emscripten.clang"
  },
  "schemaVersion": "3.4.10",
  "updatedAt": "2022-11-06T14:46:12.513Z",
  "networkType": "ethereum",
  "devdoc": {
    "kind": "dev",
    "methods": {},
    "version": 1
  },
  "userdoc": {
    "kind": "user",
    "methods": {},
    "version": 1
  }
}