{
  "contractName": "Contribution",
  "abi": [
    {
      "anonymous": false,
      "inputs": [
        {
          "indexed": false,
          "internalType": "uint256",
          "name": "_rNo",
          "type": "uint256"
        },
        {
          "indexed": false,
          "internalType": "address",
          "name": "_address",
          "type": "address"
        }
      ],
      "name": "contributeEvent",
      "type": "event"
    },
    {
      "inputs": [
        {
          "internalType": "address",
          "name": "",
          "type": "address"
        }
      ],
      "name": "balances",
      "outputs": [
        {
          "internalType": "uint256",
          "name": "",
          "type": "uint256"
        }
      ],
      "stateMutability": "view",
      "type": "function",
      "constant": true
    },
    {
      "inputs": [
        {
          "internalType": "uint256",
          "name": "",
          "type": "uint256"
        }
      ],
      "name": "clientAddresses",
      "outputs": [
        {
          "internalType": "address",
          "name": "",
          "type": "address"
        }
      ],
      "stateMutability": "view",
      "type": "function",
      "constant": true
    },
    {
      "inputs": [
        {
          "internalType": "address",
          "name": "",
          "type": "address"
        },
        {
          "internalType": "uint256",
          "name": "",
          "type": "uint256"
        }
      ],
      "name": "dataContributions",
      "outputs": [
        {
          "internalType": "bool",
          "name": "finished",
          "type": "bool"
        },
        {
          "internalType": "uint256",
          "name": "dataSize",
          "type": "uint256"
        }
      ],
      "stateMutability": "view",
      "type": "function",
      "constant": true
    },
    {
      "inputs": [
        {
          "internalType": "address",
          "name": "",
          "type": "address"
        }
      ],
      "name": "dataContributionsCount",
      "outputs": [
        {
          "internalType": "uint256",
          "name": "",
          "type": "uint256"
        }
      ],
      "stateMutability": "view",
      "type": "function",
      "constant": true
    },
    {
      "inputs": [
        {
          "internalType": "uint256",
          "name": "",
          "type": "uint256"
        }
      ],
      "name": "rNos",
      "outputs": [
        {
          "internalType": "uint256",
          "name": "",
          "type": "uint256"
        }
      ],
      "stateMutability": "view",
      "type": "function",
      "constant": true
    },
    {
      "inputs": [
        {
          "internalType": "uint256",
          "name": "_rNo",
          "type": "uint256"
        },
        {
          "internalType": "bool",
          "name": "_finished",
          "type": "bool"
        },
        {
          "internalType": "uint256",
          "name": "_dataSize",
          "type": "uint256"
        },
        {
          "internalType": "uint256",
          "name": "_payment",
          "type": "uint256"
        }
      ],
      "name": "calculateContribution",
      "outputs": [],
      "stateMutability": "nonpayable",
      "type": "function"
    },
    {
      "inputs": [],
      "name": "getClientAddresses",
      "outputs": [
        {
          "internalType": "address[]",
          "name": "",
          "type": "address[]"
        }
      ],
      "stateMutability": "view",
      "type": "function",
      "constant": true
    },
    {
      "inputs": [],
      "name": "get_rNos",
      "outputs": [
        {
          "internalType": "uint256[]",
          "name": "",
          "type": "uint256[]"
        }
      ],
      "stateMutability": "view",
      "type": "function",
      "constant": true
    },
    {
      "inputs": [
        {
          "internalType": "address",
          "name": "_clientAddress",
          "type": "address"
        },
        {
          "internalType": "uint256",
          "name": "_rNo",
          "type": "uint256"
        }
      ],
      "name": "getContribution",
      "outputs": [
        {
          "internalType": "bool",
          "name": "finished_",
          "type": "bool"
        },
        {
          "internalType": "uint256",
          "name": "dataSize_",
          "type": "uint256"
        },
        {
          "internalType": "uint256",
          "name": "balance_",
          "type": "uint256"
        }
      ],
      "stateMutability": "view",
      "type": "function",
      "constant": true
    },
    {
      "inputs": [
        {
          "internalType": "address",
          "name": "_clientAddress",
          "type": "address"
        }
      ],
      "name": "getBalance",
      "outputs": [
        {
          "internalType": "uint256",
          "name": "balance_",
          "type": "uint256"
        }
      ],
      "stateMutability": "view",
      "type": "function",
      "constant": true
    }
  ],
  "bytecode": "0x608060405234801561001057600080fd5b50610e8d806100206000396000f3fe608060405234801561001057600080fd5b506004361061009e5760003560e01c80636d2aac04116100665780636d2aac0414610181578063c80e71a5146101b2578063f1987e11146101d0578063f8b2cb4f14610200578063fa2aa5ba146102305761009e565b80631ff34c6b146100a357806327e235e3146100bf578063327520bb146100ef578063563c495e1461011f578063653c95b81461014f575b600080fd5b6100bd60048036038101906100b8919061096c565b61024e565b005b6100d960048036038101906100d49190610a31565b6105f4565b6040516100e69190610a6d565b60405180910390f35b61010960048036038101906101049190610a31565b61060c565b6040516101169190610a6d565b60405180910390f35b61013960048036038101906101349190610a88565b610624565b6040516101469190610a6d565b60405180910390f35b61016960048036038101906101649190610ab5565b610648565b60405161017893929190610b04565b60405180910390f35b61019b60048036038101906101969190610ab5565b61074d565b6040516101a9929190610b3b565b60405180910390f35b6101ba61078b565b6040516101c79190610c22565b60405180910390f35b6101ea60048036038101906101e59190610a88565b610819565b6040516101f79190610c53565b60405180910390f35b61021a60048036038101906102159190610a31565b610858565b6040516102279190610a6d565b60405180910390f35b6102386108a1565b6040516102459190610d2c565b60405180910390f35b600115156000803373ffffffffffffffffffffffffffffffffffffffff1673ffffffffffffffffffffffffffffffffffffffff168152602001908152602001600020600086815260200190815260200160002060000160009054906101000a900460ff16151514806103235750600015156000803373ffffffffffffffffffffffffffffffffffffffff1673ffffffffffffffffffffffffffffffffffffffff168152602001908152602001600020600086815260200190815260200160002060000160009054906101000a900460ff161515145b610362576040517f08c379a000000000000000000000000000000000000000000000000000000000815260040161035990610dab565b60405180910390fd5b60011515831515036105b5576101f48211156105265760405180604001604052808415158152602001838152506000803373ffffffffffffffffffffffffffffffffffffffff1673ffffffffffffffffffffffffffffffffffffffff168152602001908152602001600020600086815260200190815260200160002060008201518160000160006101000a81548160ff0219169083151502179055506020820151816001015590505080600260003373ffffffffffffffffffffffffffffffffffffffff1673ffffffffffffffffffffffffffffffffffffffff168152602001908152602001600020546104569190610dfa565b600260003373ffffffffffffffffffffffffffffffffffffffff1673ffffffffffffffffffffffffffffffffffffffff168152602001908152602001600020819055506003339080600181540180825580915050600190039060005260206000200160009091909190916101000a81548173ffffffffffffffffffffffffffffffffffffffff021916908373ffffffffffffffffffffffffffffffffffffffff16021790555060048490806001815401808255809150506001900390600052602060002001600090919091909150555b81600160003373ffffffffffffffffffffffffffffffffffffffff1673ffffffffffffffffffffffffffffffffffffffff168152602001908152602001600020546105719190610dfa565b600160003373ffffffffffffffffffffffffffffffffffffffff1673ffffffffffffffffffffffffffffffffffffffff168152602001908152602001600020819055505b7f2b60416e3c272341f6efa119959567daebfc9a7b40c7bf78de187900274e021584336040516105e6929190610e2e565b60405180910390a150505050565b60026020528060005260406000206000915090505481565b60016020528060005260406000206000915090505481565b6004818154811061063457600080fd5b906000526020600020016000915090505481565b60008060008060008673ffffffffffffffffffffffffffffffffffffffff1673ffffffffffffffffffffffffffffffffffffffff168152602001908152602001600020600085815260200190815260200160002060000160009054906101000a900460ff1692506000808673ffffffffffffffffffffffffffffffffffffffff1673ffffffffffffffffffffffffffffffffffffffff1681526020019081526020016000206000858152602001908152602001600020600101549150600260008673ffffffffffffffffffffffffffffffffffffffff1673ffffffffffffffffffffffffffffffffffffffff1681526020019081526020016000205490509250925092565b6000602052816000526040600020602052806000526040600020600091509150508060000160009054906101000a900460ff16908060010154905082565b6060600380548060200260200160405190810160405280929190818152602001828054801561080f57602002820191906000526020600020905b8160009054906101000a900473ffffffffffffffffffffffffffffffffffffffff1673ffffffffffffffffffffffffffffffffffffffff16815260200190600101908083116107c5575b5050505050905090565b6003818154811061082957600080fd5b906000526020600020016000915054906101000a900473ffffffffffffffffffffffffffffffffffffffff1681565b6000600260008373ffffffffffffffffffffffffffffffffffffffff1673ffffffffffffffffffffffffffffffffffffffff168152602001908152602001600020549050919050565b606060048054806020026020016040519081016040528092919081815260200182805480156108ef57602002820191906000526020600020905b8154815260200190600101908083116108db575b5050505050905090565b600080fd5b6000819050919050565b610911816108fe565b811461091c57600080fd5b50565b60008135905061092e81610908565b92915050565b60008115159050919050565b61094981610934565b811461095457600080fd5b50565b60008135905061096681610940565b92915050565b60008060008060808587031215610986576109856108f9565b5b60006109948782880161091f565b94505060206109a587828801610957565b93505060406109b68782880161091f565b92505060606109c78782880161091f565b91505092959194509250565b600073ffffffffffffffffffffffffffffffffffffffff82169050919050565b60006109fe826109d3565b9050919050565b610a0e816109f3565b8114610a1957600080fd5b50565b600081359050610a2b81610a05565b92915050565b600060208284031215610a4757610a466108f9565b5b6000610a5584828501610a1c565b91505092915050565b610a67816108fe565b82525050565b6000602082019050610a826000830184610a5e565b92915050565b600060208284031215610a9e57610a9d6108f9565b5b6000610aac8482850161091f565b91505092915050565b60008060408385031215610acc57610acb6108f9565b5b6000610ada85828601610a1c565b9250506020610aeb8582860161091f565b9150509250929050565b610afe81610934565b82525050565b6000606082019050610b196000830186610af5565b610b266020830185610a5e565b610b336040830184610a5e565b949350505050565b6000604082019050610b506000830185610af5565b610b5d6020830184610a5e565b9392505050565b600081519050919050565b600082825260208201905092915050565b6000819050602082019050919050565b610b99816109f3565b82525050565b6000610bab8383610b90565b60208301905092915050565b6000602082019050919050565b6000610bcf82610b64565b610bd98185610b6f565b9350610be483610b80565b8060005b83811015610c15578151610bfc8882610b9f565b9750610c0783610bb7565b925050600181019050610be8565b5085935050505092915050565b60006020820190508181036000830152610c3c8184610bc4565b905092915050565b610c4d816109f3565b82525050565b6000602082019050610c686000830184610c44565b92915050565b600081519050919050565b600082825260208201905092915050565b6000819050602082019050919050565b610ca3816108fe565b82525050565b6000610cb58383610c9a565b60208301905092915050565b6000602082019050919050565b6000610cd982610c6e565b610ce38185610c79565b9350610cee83610c8a565b8060005b83811015610d1f578151610d068882610ca9565b9750610d1183610cc1565b925050600181019050610cf2565b5085935050505092915050565b60006020820190508181036000830152610d468184610cce565b905092915050565b600082825260208201905092915050565b7f4564676520616c726561647920636f6e74726962757465642e00000000000000600082015250565b6000610d95601983610d4e565b9150610da082610d5f565b602082019050919050565b60006020820190508181036000830152610dc481610d88565b9050919050565b7f4e487b7100000000000000000000000000000000000000000000000000000000600052601160045260246000fd5b6000610e05826108fe565b9150610e10836108fe565b9250828201905080821115610e2857610e27610dcb565b5b92915050565b6000604082019050610e436000830185610a5e565b610e506020830184610c44565b939250505056fea264697066735822122000062d20101f53b9cf6e1bf1b2a1039c58510ed9c3653e506a20fa89ba11b35b64736f6c63430008110033",
  "immutableReferences": {},
  "source": "pragma solidity >=0.5.0 <0.9.0;\r\n\r\ncontract Contribution{\r\n    \r\n    struct Work {\r\n        bool finished;\r\n        uint dataSize;\r\n    }\r\n\r\n    mapping(address => mapping(uint => Work)) public dataContributions;\r\n    mapping(address => uint) public dataContributionsCount;\r\n    mapping(address => uint) public balances;\r\n    address[] public clientAddresses;\r\n    uint[] public rNos;\r\n    event contributeEvent(uint _rNo, address _address);\r\n\r\n    function calculateContribution(uint _rNo, bool _finished, uint _dataSize, uint _payment)  public \r\n    {\r\n        require(\r\n            (dataContributions[msg.sender][_rNo].finished == true || dataContributions[msg.sender][_rNo].finished == false)\r\n            ,\r\n            \"Edge already contributed.\"\r\n        );\r\n\r\n        if (_finished == true) {\r\n            if(_dataSize > 500){\r\n                dataContributions[msg.sender][_rNo] = Work(_finished, _dataSize);\r\n                balances[msg.sender] = balances[msg.sender] + _payment;\r\n                clientAddresses.push(msg.sender);\r\n                rNos.push(_rNo);\r\n            }\r\n            dataContributionsCount[msg.sender] =  dataContributionsCount[msg.sender]+_dataSize;                \r\n        }\r\n\r\n       emit contributeEvent(_rNo, msg.sender);\r\n    }\r\n\r\n    function getClientAddresses() view public returns (address[] memory){\r\n        return clientAddresses;\r\n    }\r\n\r\n    function get_rNos() view public returns (uint[] memory){\r\n        return rNos;\r\n    }\r\n\r\n    function getContribution(address _clientAddress, uint _rNo) view public returns (bool finished_, uint dataSize_, uint balance_){\r\n        finished_ = dataContributions[_clientAddress][_rNo].finished;\r\n        dataSize_ = dataContributions[_clientAddress][_rNo].dataSize;\r\n        balance_ = balances[_clientAddress];\r\n\r\n        return (finished_, dataSize_, balance_);\r\n    }\r\n\r\n    function getBalance(address _clientAddress) public view returns(uint balance_){\r\n       return balances[_clientAddress];\r\n    }\r\n\r\n\r\n}\r\n",
  "sourcePath": "C:\\Users\\KietVu\\Workspace\\WinNative\\FlwrBC\\Blockchain\\contracts\\Contribution.sol",
  "compiler": {
    "name": "solc",
    "version": "0.8.17+commit.8df45f5f.Emscripten.clang"
  },
  "schemaVersion": "3.4.10",
  "updatedAt": "2022-12-13T17:45:47.966Z",
  "networkType": "ethereum",
  "devdoc": {
    "kind": "dev",
    "methods": {},
    "version": 1
  },
  "userdoc": {
    "kind": "user",
    "methods": {},
    "version": 1
  }
}