{
  "contractName": "Contribution",
  "abi": [
    {
      "anonymous": false,
      "inputs": [
        {
          "indexed": false,
          "internalType": "uint256",
          "name": "_rNo",
          "type": "uint256"
        },
        {
          "indexed": false,
          "internalType": "address",
          "name": "_address",
          "type": "address"
        }
      ],
      "name": "contributeEvent",
      "type": "event"
    },
    {
      "inputs": [
        {
          "internalType": "address",
          "name": "",
          "type": "address"
        }
      ],
      "name": "balances",
      "outputs": [
        {
          "internalType": "uint256",
          "name": "",
          "type": "uint256"
        }
      ],
      "stateMutability": "view",
      "type": "function",
      "constant": true
    },
    {
      "inputs": [
        {
          "internalType": "uint256",
          "name": "",
          "type": "uint256"
        }
      ],
      "name": "clientAddresses",
      "outputs": [
        {
          "internalType": "address",
          "name": "",
          "type": "address"
        }
      ],
      "stateMutability": "view",
      "type": "function",
      "constant": true
    },
    {
      "inputs": [
        {
          "internalType": "address",
          "name": "",
          "type": "address"
        },
        {
          "internalType": "uint256",
          "name": "",
          "type": "uint256"
        }
      ],
      "name": "dataContributions",
      "outputs": [
        {
          "internalType": "bool",
          "name": "finished",
          "type": "bool"
        },
        {
          "internalType": "uint256",
          "name": "dataSize",
          "type": "uint256"
        }
      ],
      "stateMutability": "view",
      "type": "function",
      "constant": true
    },
    {
      "inputs": [
        {
          "internalType": "address",
          "name": "",
          "type": "address"
        }
      ],
      "name": "dataContributionsCount",
      "outputs": [
        {
          "internalType": "uint256",
          "name": "",
          "type": "uint256"
        }
      ],
      "stateMutability": "view",
      "type": "function",
      "constant": true
    },
    {
      "inputs": [
        {
          "internalType": "uint256",
          "name": "",
          "type": "uint256"
        }
      ],
      "name": "rNos",
      "outputs": [
        {
          "internalType": "uint256",
          "name": "",
          "type": "uint256"
        }
      ],
      "stateMutability": "view",
      "type": "function",
      "constant": true
    },
    {
      "inputs": [
        {
          "internalType": "uint256",
          "name": "_rNo",
          "type": "uint256"
        },
        {
          "internalType": "bool",
          "name": "_finished",
          "type": "bool"
        },
        {
          "internalType": "uint256",
          "name": "_dataSize",
          "type": "uint256"
        }
      ],
      "name": "calculateContribution",
      "outputs": [],
      "stateMutability": "nonpayable",
      "type": "function"
    },
    {
      "inputs": [],
      "name": "getClientAddresses",
      "outputs": [
        {
          "internalType": "address[]",
          "name": "",
          "type": "address[]"
        }
      ],
      "stateMutability": "view",
      "type": "function",
      "constant": true
    },
    {
      "inputs": [],
      "name": "get_rNos",
      "outputs": [
        {
          "internalType": "uint256[]",
          "name": "",
          "type": "uint256[]"
        }
      ],
      "stateMutability": "view",
      "type": "function",
      "constant": true
    },
    {
      "inputs": [
        {
          "internalType": "address",
          "name": "_clientAddress",
          "type": "address"
        },
        {
          "internalType": "uint256",
          "name": "_rNo",
          "type": "uint256"
        }
      ],
      "name": "getContribution",
      "outputs": [
        {
          "internalType": "bool",
          "name": "finished_",
          "type": "bool"
        },
        {
          "internalType": "uint256",
          "name": "dataSize_",
          "type": "uint256"
        },
        {
          "internalType": "uint256",
          "name": "balance_",
          "type": "uint256"
        }
      ],
      "stateMutability": "view",
      "type": "function",
      "constant": true
    },
    {
      "inputs": [
        {
          "internalType": "address",
          "name": "_clientAddress",
          "type": "address"
        }
      ],
      "name": "getBalance",
      "outputs": [
        {
          "internalType": "uint256",
          "name": "balance_",
          "type": "uint256"
        }
      ],
      "stateMutability": "view",
      "type": "function",
      "constant": true
    }
  ],
  "bytecode": "0x608060405234801561001057600080fd5b50610ee4806100206000396000f3fe608060405234801561001057600080fd5b506004361061009d5760003560e01c80636d2aac04116100665780636d2aac0414610180578063c80e71a5146101b1578063f1987e11146101cf578063f8b2cb4f146101ff578063fa2aa5ba1461022f5761009d565b8062d48898146100a257806327e235e3146100be578063327520bb146100ee578063563c495e1461011e578063653c95b81461014e575b600080fd5b6100bc60048036038101906100b79190610977565b61024d565b005b6100d860048036038101906100d39190610a28565b6105ff565b6040516100e59190610a64565b60405180910390f35b61010860048036038101906101039190610a28565b610617565b6040516101159190610a64565b60405180910390f35b61013860048036038101906101339190610a7f565b61062f565b6040516101459190610a64565b60405180910390f35b61016860048036038101906101639190610aac565b610653565b60405161017793929190610afb565b60405180910390f35b61019a60048036038101906101959190610aac565b610758565b6040516101a8929190610b32565b60405180910390f35b6101b9610796565b6040516101c69190610c19565b60405180910390f35b6101e960048036038101906101e49190610a7f565b610824565b6040516101f69190610c4a565b60405180910390f35b61021960048036038101906102149190610a28565b610863565b6040516102269190610a64565b60405180910390f35b6102376108ac565b6040516102449190610d23565b60405180910390f35b600115156000803373ffffffffffffffffffffffffffffffffffffffff1673ffffffffffffffffffffffffffffffffffffffff168152602001908152602001600020600085815260200190815260200160002060000160009054906101000a900460ff16151514806103225750600015156000803373ffffffffffffffffffffffffffffffffffffffff1673ffffffffffffffffffffffffffffffffffffffff168152602001908152602001600020600085815260200190815260200160002060000160009054906101000a900460ff161515145b610361576040517f08c379a000000000000000000000000000000000000000000000000000000000815260040161035890610da2565b60405180910390fd5b60011515821515036105c1576101f48111156105325760405180604001604052808315158152602001828152506000803373ffffffffffffffffffffffffffffffffffffffff1673ffffffffffffffffffffffffffffffffffffffff168152602001908152602001600020600085815260200190815260200160002060008201518160000160006101000a81548160ff021916908315150217905550602082015181600101559050506101f4816104189190610e20565b600260003373ffffffffffffffffffffffffffffffffffffffff1673ffffffffffffffffffffffffffffffffffffffff168152602001908152602001600020546104629190610e51565b600260003373ffffffffffffffffffffffffffffffffffffffff1673ffffffffffffffffffffffffffffffffffffffff168152602001908152602001600020819055506003339080600181540180825580915050600190039060005260206000200160009091909190916101000a81548173ffffffffffffffffffffffffffffffffffffffff021916908373ffffffffffffffffffffffffffffffffffffffff16021790555060048390806001815401808255809150506001900390600052602060002001600090919091909150555b80600160003373ffffffffffffffffffffffffffffffffffffffff1673ffffffffffffffffffffffffffffffffffffffff1681526020019081526020016000205461057d9190610e51565b600160003373ffffffffffffffffffffffffffffffffffffffff1673ffffffffffffffffffffffffffffffffffffffff168152602001908152602001600020819055505b7f2b60416e3c272341f6efa119959567daebfc9a7b40c7bf78de187900274e021583336040516105f2929190610e85565b60405180910390a1505050565b60026020528060005260406000206000915090505481565b60016020528060005260406000206000915090505481565b6004818154811061063f57600080fd5b906000526020600020016000915090505481565b60008060008060008673ffffffffffffffffffffffffffffffffffffffff1673ffffffffffffffffffffffffffffffffffffffff168152602001908152602001600020600085815260200190815260200160002060000160009054906101000a900460ff1692506000808673ffffffffffffffffffffffffffffffffffffffff1673ffffffffffffffffffffffffffffffffffffffff1681526020019081526020016000206000858152602001908152602001600020600101549150600260008673ffffffffffffffffffffffffffffffffffffffff1673ffffffffffffffffffffffffffffffffffffffff1681526020019081526020016000205490509250925092565b6000602052816000526040600020602052806000526040600020600091509150508060000160009054906101000a900460ff16908060010154905082565b6060600380548060200260200160405190810160405280929190818152602001828054801561081a57602002820191906000526020600020905b8160009054906101000a900473ffffffffffffffffffffffffffffffffffffffff1673ffffffffffffffffffffffffffffffffffffffff16815260200190600101908083116107d0575b5050505050905090565b6003818154811061083457600080fd5b906000526020600020016000915054906101000a900473ffffffffffffffffffffffffffffffffffffffff1681565b6000600260008373ffffffffffffffffffffffffffffffffffffffff1673ffffffffffffffffffffffffffffffffffffffff168152602001908152602001600020549050919050565b606060048054806020026020016040519081016040528092919081815260200182805480156108fa57602002820191906000526020600020905b8154815260200190600101908083116108e6575b5050505050905090565b600080fd5b6000819050919050565b61091c81610909565b811461092757600080fd5b50565b60008135905061093981610913565b92915050565b60008115159050919050565b6109548161093f565b811461095f57600080fd5b50565b6000813590506109718161094b565b92915050565b6000806000606084860312156109905761098f610904565b5b600061099e8682870161092a565b93505060206109af86828701610962565b92505060406109c08682870161092a565b9150509250925092565b600073ffffffffffffffffffffffffffffffffffffffff82169050919050565b60006109f5826109ca565b9050919050565b610a05816109ea565b8114610a1057600080fd5b50565b600081359050610a22816109fc565b92915050565b600060208284031215610a3e57610a3d610904565b5b6000610a4c84828501610a13565b91505092915050565b610a5e81610909565b82525050565b6000602082019050610a796000830184610a55565b92915050565b600060208284031215610a9557610a94610904565b5b6000610aa38482850161092a565b91505092915050565b60008060408385031215610ac357610ac2610904565b5b6000610ad185828601610a13565b9250506020610ae28582860161092a565b9150509250929050565b610af58161093f565b82525050565b6000606082019050610b106000830186610aec565b610b1d6020830185610a55565b610b2a6040830184610a55565b949350505050565b6000604082019050610b476000830185610aec565b610b546020830184610a55565b9392505050565b600081519050919050565b600082825260208201905092915050565b6000819050602082019050919050565b610b90816109ea565b82525050565b6000610ba28383610b87565b60208301905092915050565b6000602082019050919050565b6000610bc682610b5b565b610bd08185610b66565b9350610bdb83610b77565b8060005b83811015610c0c578151610bf38882610b96565b9750610bfe83610bae565b925050600181019050610bdf565b5085935050505092915050565b60006020820190508181036000830152610c338184610bbb565b905092915050565b610c44816109ea565b82525050565b6000602082019050610c5f6000830184610c3b565b92915050565b600081519050919050565b600082825260208201905092915050565b6000819050602082019050919050565b610c9a81610909565b82525050565b6000610cac8383610c91565b60208301905092915050565b6000602082019050919050565b6000610cd082610c65565b610cda8185610c70565b9350610ce583610c81565b8060005b83811015610d16578151610cfd8882610ca0565b9750610d0883610cb8565b925050600181019050610ce9565b5085935050505092915050565b60006020820190508181036000830152610d3d8184610cc5565b905092915050565b600082825260208201905092915050565b7f4564676520616c726561647920636f6e74726962757465642e00000000000000600082015250565b6000610d8c601983610d45565b9150610d9782610d56565b602082019050919050565b60006020820190508181036000830152610dbb81610d7f565b9050919050565b7f4e487b7100000000000000000000000000000000000000000000000000000000600052601260045260246000fd5b7f4e487b7100000000000000000000000000000000000000000000000000000000600052601160045260246000fd5b6000610e2b82610909565b9150610e3683610909565b925082610e4657610e45610dc2565b5b828204905092915050565b6000610e5c82610909565b9150610e6783610909565b9250828201905080821115610e7f57610e7e610df1565b5b92915050565b6000604082019050610e9a6000830185610a55565b610ea76020830184610c3b565b939250505056fea264697066735822122014764f6fac54865a24e07556bb05890750d150950c4b7a6e178f9d6e40cdedd064736f6c63430008110033",
  "immutableReferences": {},
  "source": "pragma solidity >=0.5.0 <0.9.0;\r\n\r\ncontract Contribution{\r\n    \r\n    struct Work {\r\n        bool finished;\r\n        uint dataSize;\r\n    }\r\n\r\n    mapping(address => mapping(uint => Work)) public dataContributions;\r\n    mapping(address => uint) public dataContributionsCount;\r\n    mapping(address => uint) public balances;\r\n    address[] public clientAddresses;\r\n    uint[] public rNos;\r\n    event contributeEvent(uint _rNo, address _address);\r\n\r\n    function calculateContribution(uint _rNo, bool _finished, uint _dataSize)  public \r\n    {\r\n        require(\r\n            (dataContributions[msg.sender][_rNo].finished == true || dataContributions[msg.sender][_rNo].finished == false)\r\n            ,\r\n            \"Edge already contributed.\"\r\n        );\r\n\r\n        if (_finished == true) {\r\n            if(_dataSize > 500){\r\n                dataContributions[msg.sender][_rNo] = Work(_finished, _dataSize);\r\n                balances[msg.sender] = balances[msg.sender] + (_dataSize/500);\r\n                clientAddresses.push(msg.sender);\r\n                rNos.push(_rNo);\r\n            }\r\n            dataContributionsCount[msg.sender] =  dataContributionsCount[msg.sender]+_dataSize;                \r\n        }\r\n\r\n       emit contributeEvent(_rNo, msg.sender);\r\n    }\r\n\r\n    function getClientAddresses() view public returns (address[] memory){\r\n        return clientAddresses;\r\n    }\r\n\r\n    function get_rNos() view public returns (uint[] memory){\r\n        return rNos;\r\n    }\r\n\r\n    function getContribution(address _clientAddress, uint _rNo) view public returns (bool finished_, uint dataSize_, uint balance_){\r\n        finished_ = dataContributions[_clientAddress][_rNo].finished;\r\n        dataSize_ = dataContributions[_clientAddress][_rNo].dataSize;\r\n        balance_ = balances[_clientAddress];\r\n\r\n        return (finished_, dataSize_, balance_);\r\n    }\r\n\r\n    function getBalance(address _clientAddress) public view returns(uint balance_){\r\n       return balances[_clientAddress];\r\n    }\r\n\r\n\r\n}\r\n",
  "sourcePath": "C:\\Users\\KietVu\\Workspace\\WinNative\\FlwrBC\\Blockchain\\contracts\\Contribution.sol",
  "compiler": {
    "name": "solc",
    "version": "0.8.17+commit.8df45f5f.Emscripten.clang"
  },
  "schemaVersion": "3.4.10",
  "updatedAt": "2022-11-25T17:58:43.309Z",
  "networkType": "ethereum",
  "devdoc": {
    "kind": "dev",
    "methods": {},
    "version": 1
  },
  "userdoc": {
    "kind": "user",
    "methods": {},
    "version": 1
  }
}