{
  "contractName": "Federation",
  "abi": [
    {
      "anonymous": false,
      "inputs": [
        {
          "indexed": false,
          "internalType": "string",
          "name": "_algoName",
          "type": "string"
        },
        {
          "indexed": false,
          "internalType": "uint256",
          "name": "_num_client",
          "type": "uint256"
        },
        {
          "indexed": false,
          "internalType": "uint256",
          "name": "_num_round",
          "type": "uint256"
        }
      ],
      "name": "addStrategyEvent",
      "type": "event"
    },
    {
      "inputs": [
        {
          "internalType": "uint256",
          "name": "_session",
          "type": "uint256"
        },
        {
          "internalType": "uint256",
          "name": "_round_num",
          "type": "uint256"
        },
        {
          "internalType": "uint256",
          "name": "_dataSize",
          "type": "uint256"
        },
        {
          "internalType": "string",
          "name": "_filePath",
          "type": "string"
        },
        {
          "internalType": "string",
          "name": "_fileHash",
          "type": "string"
        }
      ],
      "name": "addWeight",
      "outputs": [],
      "stateMutability": "nonpayable",
      "type": "function"
    },
    {
      "inputs": [
        {
          "internalType": "uint256",
          "name": "_session",
          "type": "uint256"
        },
        {
          "internalType": "uint256",
          "name": "_round_num",
          "type": "uint256"
        }
      ],
      "name": "getWeight",
      "outputs": [
        {
          "internalType": "uint256",
          "name": "dataSize_",
          "type": "uint256"
        },
        {
          "internalType": "string",
          "name": "filePath_",
          "type": "string"
        },
        {
          "internalType": "string",
          "name": "fileHash_",
          "type": "string"
        }
      ],
      "stateMutability": "view",
      "type": "function",
      "constant": true
    },
    {
      "inputs": [
        {
          "internalType": "uint256",
          "name": "_session",
          "type": "uint256"
        },
        {
          "internalType": "uint256",
          "name": "_round_num",
          "type": "uint256"
        },
        {
          "internalType": "string",
          "name": "_filePath",
          "type": "string"
        },
        {
          "internalType": "string",
          "name": "_fileHash",
          "type": "string"
        }
      ],
      "name": "addModel",
      "outputs": [],
      "stateMutability": "nonpayable",
      "type": "function"
    },
    {
      "inputs": [
        {
          "internalType": "uint256",
          "name": "_session",
          "type": "uint256"
        },
        {
          "internalType": "uint256",
          "name": "_round_num",
          "type": "uint256"
        }
      ],
      "name": "getModel",
      "outputs": [
        {
          "internalType": "string",
          "name": "filePath_",
          "type": "string"
        },
        {
          "internalType": "string",
          "name": "fileHash_",
          "type": "string"
        }
      ],
      "stateMutability": "view",
      "type": "function",
      "constant": true
    },
    {
      "inputs": [
        {
          "internalType": "uint256",
          "name": "_session",
          "type": "uint256"
        },
        {
          "internalType": "string",
          "name": "_algoName",
          "type": "string"
        },
        {
          "internalType": "uint256",
          "name": "_numRounds",
          "type": "uint256"
        },
        {
          "internalType": "uint256",
          "name": "_numClients",
          "type": "uint256"
        }
      ],
      "name": "addStartegy",
      "outputs": [
        {
          "internalType": "string",
          "name": "no",
          "type": "string"
        }
      ],
      "stateMutability": "nonpayable",
      "type": "function"
    },
    {
      "inputs": [
        {
          "internalType": "uint256",
          "name": "_session",
          "type": "uint256"
        }
      ],
      "name": "getStrategy",
      "outputs": [
        {
          "internalType": "string",
          "name": "algoName_",
          "type": "string"
        },
        {
          "internalType": "uint256",
          "name": "numRounds_",
          "type": "uint256"
        },
        {
          "internalType": "uint256",
          "name": "numClients_",
          "type": "uint256"
        }
      ],
      "stateMutability": "view",
      "type": "function",
      "constant": true
    }
  ],
  "bytecode": "0x608060405234801561001057600080fd5b506110e7806100206000396000f3fe608060405234801561001057600080fd5b50600436106100625760003560e01c80630f39ee72146100675780633705216e14610099578063495a70b0146100b5578063cfc0cc34146100e6578063f8cc55b314610118578063f905b65014610134575b600080fd5b610081600480360381019061007c91906108e1565b610164565b604051610090939291906109c0565b60405180910390f35b6100b360048036038101906100ae9190610b3a565b6103b2565b005b6100cf60048036038101906100ca91906108e1565b610422565b6040516100dd929190610bd9565b60405180910390f35b61010060048036038101906100fb9190610c10565b610590565b60405161010f93929190610c3d565b60405180910390f35b610132600480360381019061012d9190610c7b565b61066f565b005b61014e60048036038101906101499190610d2e565b6107c0565b60405161015b9190610db1565b60405180910390f35b6000606080600080868152602001908152602001600020600085815260200190815260200160002060003373ffffffffffffffffffffffffffffffffffffffff1673ffffffffffffffffffffffffffffffffffffffff168152602001908152602001600020600001549250600080868152602001908152602001600020600085815260200190815260200160002060003373ffffffffffffffffffffffffffffffffffffffff1673ffffffffffffffffffffffffffffffffffffffff168152602001908152602001600020600101805461023d90610e02565b80601f016020809104026020016040519081016040528092919081815260200182805461026990610e02565b80156102b65780601f1061028b576101008083540402835291602001916102b6565b820191906000526020600020905b81548152906001019060200180831161029957829003601f168201915b50505050509150600080868152602001908152602001600020600085815260200190815260200160002060003373ffffffffffffffffffffffffffffffffffffffff1673ffffffffffffffffffffffffffffffffffffffff168152602001908152602001600020600201805461032b90610e02565b80601f016020809104026020016040519081016040528092919081815260200182805461035790610e02565b80156103a45780601f10610379576101008083540402835291602001916103a4565b820191906000526020600020905b81548152906001019060200180831161038757829003601f168201915b505050505090509250925092565b8160016000868152602001908152602001600020600085815260200190815260200160002060000190816103e69190610fdf565b5080600160008681526020019081526020016000206000858152602001908152602001600020600101908161041b9190610fdf565b5050505050565b606080600160008581526020019081526020016000206000848152602001908152602001600020600001805461045790610e02565b80601f016020809104026020016040519081016040528092919081815260200182805461048390610e02565b80156104d05780601f106104a5576101008083540402835291602001916104d0565b820191906000526020600020905b8154815290600101906020018083116104b357829003601f168201915b50505050509150600160008581526020019081526020016000206000848152602001908152602001600020600101805461050990610e02565b80601f016020809104026020016040519081016040528092919081815260200182805461053590610e02565b80156105825780601f1061055757610100808354040283529160200191610582565b820191906000526020600020905b81548152906001019060200180831161056557829003601f168201915b505050505090509250929050565b60606000806002600085815260200190815260200160002060000180546105b690610e02565b80601f01602080910402602001604051908101604052809291908181526020018280546105e290610e02565b801561062f5780601f106106045761010080835404028352916020019161062f565b820191906000526020600020905b81548152906001019060200180831161061257829003601f168201915b5050505050925060026000858152602001908152602001600020600101549150600260008581526020019081526020016000206002015490509193909250565b82600080878152602001908152602001600020600086815260200190815260200160002060003373ffffffffffffffffffffffffffffffffffffffff1673ffffffffffffffffffffffffffffffffffffffff1681526020019081526020016000206000018190555081600080878152602001908152602001600020600086815260200190815260200160002060003373ffffffffffffffffffffffffffffffffffffffff1673ffffffffffffffffffffffffffffffffffffffff16815260200190815260200160002060010190816107479190610fdf565b5080600080878152602001908152602001600020600086815260200190815260200160002060003373ffffffffffffffffffffffffffffffffffffffff1673ffffffffffffffffffffffffffffffffffffffff16815260200190815260200160002060020190816107b89190610fdf565b505050505050565b6060836002600087815260200190815260200160002060000190816107e59190610fdf565b508260026000878152602001908152602001600020600101819055508160026000878152602001908152602001600020600201819055507fae06fef34b43bd11be381b3a74f36488ed8a0e8e9070a061d4df07208d7428a284848460405161084f93929190610c3d565b60405180910390a16040518060400160405280600e81526020017f53747261746567792061646465640000000000000000000000000000000000008152509050949350505050565b6000604051905090565b600080fd5b600080fd5b6000819050919050565b6108be816108ab565b81146108c957600080fd5b50565b6000813590506108db816108b5565b92915050565b600080604083850312156108f8576108f76108a1565b5b6000610906858286016108cc565b9250506020610917858286016108cc565b9150509250929050565b61092a816108ab565b82525050565b600081519050919050565b600082825260208201905092915050565b60005b8381101561096a57808201518184015260208101905061094f565b60008484015250505050565b6000601f19601f8301169050919050565b600061099282610930565b61099c818561093b565b93506109ac81856020860161094c565b6109b581610976565b840191505092915050565b60006060820190506109d56000830186610921565b81810360208301526109e78185610987565b905081810360408301526109fb8184610987565b9050949350505050565b600080fd5b600080fd5b7f4e487b7100000000000000000000000000000000000000000000000000000000600052604160045260246000fd5b610a4782610976565b810181811067ffffffffffffffff82111715610a6657610a65610a0f565b5b80604052505050565b6000610a79610897565b9050610a858282610a3e565b919050565b600067ffffffffffffffff821115610aa557610aa4610a0f565b5b610aae82610976565b9050602081019050919050565b82818337600083830152505050565b6000610add610ad884610a8a565b610a6f565b905082815260208101848484011115610af957610af8610a0a565b5b610b04848285610abb565b509392505050565b600082601f830112610b2157610b20610a05565b5b8135610b31848260208601610aca565b91505092915050565b60008060008060808587031215610b5457610b536108a1565b5b6000610b62878288016108cc565b9450506020610b73878288016108cc565b935050604085013567ffffffffffffffff811115610b9457610b936108a6565b5b610ba087828801610b0c565b925050606085013567ffffffffffffffff811115610bc157610bc06108a6565b5b610bcd87828801610b0c565b91505092959194509250565b60006040820190508181036000830152610bf38185610987565b90508181036020830152610c078184610987565b90509392505050565b600060208284031215610c2657610c256108a1565b5b6000610c34848285016108cc565b91505092915050565b60006060820190508181036000830152610c578186610987565b9050610c666020830185610921565b610c736040830184610921565b949350505050565b600080600080600060a08688031215610c9757610c966108a1565b5b6000610ca5888289016108cc565b9550506020610cb6888289016108cc565b9450506040610cc7888289016108cc565b935050606086013567ffffffffffffffff811115610ce857610ce76108a6565b5b610cf488828901610b0c565b925050608086013567ffffffffffffffff811115610d1557610d146108a6565b5b610d2188828901610b0c565b9150509295509295909350565b60008060008060808587031215610d4857610d476108a1565b5b6000610d56878288016108cc565b945050602085013567ffffffffffffffff811115610d7757610d766108a6565b5b610d8387828801610b0c565b9350506040610d94878288016108cc565b9250506060610da5878288016108cc565b91505092959194509250565b60006020820190508181036000830152610dcb8184610987565b905092915050565b7f4e487b7100000000000000000000000000000000000000000000000000000000600052602260045260246000fd5b60006002820490506001821680610e1a57607f821691505b602082108103610e2d57610e2c610dd3565b5b50919050565b60008190508160005260206000209050919050565b60006020601f8301049050919050565b600082821b905092915050565b600060088302610e957fffffffffffffffffffffffffffffffffffffffffffffffffffffffffffffffff82610e58565b610e9f8683610e58565b95508019841693508086168417925050509392505050565b6000819050919050565b6000610edc610ed7610ed2846108ab565b610eb7565b6108ab565b9050919050565b6000819050919050565b610ef683610ec1565b610f0a610f0282610ee3565b848454610e65565b825550505050565b600090565b610f1f610f12565b610f2a818484610eed565b505050565b5b81811015610f4e57610f43600082610f17565b600181019050610f30565b5050565b601f821115610f9357610f6481610e33565b610f6d84610e48565b81016020851015610f7c578190505b610f90610f8885610e48565b830182610f2f565b50505b505050565b600082821c905092915050565b6000610fb660001984600802610f98565b1980831691505092915050565b6000610fcf8383610fa5565b9150826002028217905092915050565b610fe882610930565b67ffffffffffffffff81111561100157611000610a0f565b5b61100b8254610e02565b611016828285610f52565b600060209050601f8311600181146110495760008415611037578287015190505b6110418582610fc3565b8655506110a9565b601f19841661105786610e33565b60005b8281101561107f5784890151825560018201915060208501945060208101905061105a565b8683101561109c5784890151611098601f891682610fa5565b8355505b6001600288020188555050505b50505050505056fea2646970667358221220012aea3aa3703189bdb502979c6d9e7b47142b842e4ab14841144e0346db473e64736f6c63430008110033",
  "immutableReferences": {},
  "source": "pragma solidity >=0.5.0 <0.9.0;\r\n\r\ncontract Federation{\r\n    struct Weight{\r\n        uint dataSize;\r\n        string filePath;\r\n        string fileHash;\r\n    }\r\n\r\n    struct GlobalModel{\r\n        string filePath;\r\n        string fileHash;\r\n    }\r\n\r\n    struct Strategy{\r\n        string algoName;\r\n        uint numRounds;\r\n        uint numClients;\r\n    }\r\n\r\n    mapping (uint => mapping(uint => mapping(address => Weight))) weights;\r\n    mapping (uint => mapping(uint => GlobalModel)) models;\r\n    mapping (uint => Strategy) strategies;\r\n    event addStrategyEvent(string _algoName, uint _num_client, uint _num_round);\r\n\r\n    // Add & Get Weights\r\n    function addWeight(uint _session, uint _round_num, uint _dataSize, string memory _filePath, string memory _fileHash) public {\r\n        weights[_session][_round_num][msg.sender].dataSize = _dataSize;\r\n        weights[_session][_round_num][msg.sender].filePath = _filePath;\r\n        weights[_session][_round_num][msg.sender].fileHash = _fileHash;\r\n    }\r\n\r\n    function getWeight(uint _session, uint _round_num) public view returns (uint dataSize_, string memory filePath_, string memory fileHash_){\r\n        dataSize_ = weights[_session][_round_num][msg.sender].dataSize;\r\n        filePath_ = weights[_session][_round_num][msg.sender].filePath;\r\n        fileHash_ = weights[_session][_round_num][msg.sender].fileHash;\r\n        return(dataSize_,filePath_,fileHash_);\r\n    }\r\n\r\n\r\n    // Add & Get GlobalModel\r\n    function addModel(uint _session, uint _round_num, string memory _filePath, string memory _fileHash) public {\r\n        models[_session][_round_num].filePath = _filePath;\r\n        models[_session][_round_num].fileHash = _fileHash; \r\n    }\r\n\r\n    function getModel(uint _session, uint _round_num) public view returns (string memory filePath_, string memory fileHash_){\r\n        filePath_ = models[_session][_round_num].filePath;\r\n        fileHash_ = models[_session][_round_num].fileHash;\r\n        return (filePath_, fileHash_);\r\n    }\r\n\r\n\r\n    // Add & Get Strategy\r\n    function addStartegy(uint _session, string memory _algoName, uint _numRounds, uint _numClients) public returns(string memory no){\r\n        strategies[_session].algoName = _algoName;\r\n        strategies[_session].numRounds = _numRounds;\r\n        strategies[_session].numClients = _numClients;\r\n        \r\n        emit addStrategyEvent(_algoName, _numRounds, _numClients);\r\n        return \"Strategy added\";\r\n    }\r\n\r\n    function getStrategy(uint _session) public view returns (string memory algoName_, uint numRounds_, uint numClients_){\r\n        algoName_ = strategies[_session].algoName;\r\n        numRounds_ = strategies[_session].numRounds;\r\n        numClients_ = strategies[_session].numClients;\r\n        return(algoName_, numRounds_, numClients_);\r\n    }\r\n}",
  "sourcePath": "C:\\Users\\KietVu\\Workspace\\WinNative\\FlwrBC\\Blockchain\\contracts\\Federation.sol",
  "compiler": {
    "name": "solc",
    "version": "0.8.17+commit.8df45f5f.Emscripten.clang"
  },
  "schemaVersion": "3.4.10",
  "updatedAt": "2022-12-13T17:45:47.973Z",
  "networkType": "ethereum",
  "devdoc": {
    "kind": "dev",
    "methods": {},
    "version": 1
  },
  "userdoc": {
    "kind": "user",
    "methods": {},
    "version": 1
  }
}